{
  "_format": "hh3-artifact-1",
  "contractName": "Paylink",
  "sourceName": "contracts/Paylink.sol",
  "abi": [
    {
      "inputs": [],
      "stateMutability": "nonpayable",
      "type": "constructor"
    },
    {
      "inputs": [
        {
          "internalType": "address",
          "name": "owner",
          "type": "address"
        }
      ],
      "name": "OwnableInvalidOwner",
      "type": "error"
    },
    {
      "inputs": [
        {
          "internalType": "address",
          "name": "account",
          "type": "address"
        }
      ],
      "name": "OwnableUnauthorizedAccount",
      "type": "error"
    },
    {
      "inputs": [],
      "name": "ReentrancyGuardReentrantCall",
      "type": "error"
    },
    {
      "inputs": [
        {
          "internalType": "address",
          "name": "token",
          "type": "address"
        }
      ],
      "name": "SafeERC20FailedOperation",
      "type": "error"
    },
    {
      "anonymous": false,
      "inputs": [
        {
          "indexed": true,
          "internalType": "uint256",
          "name": "id",
          "type": "uint256"
        },
        {
          "indexed": true,
          "internalType": "address",
          "name": "payer",
          "type": "address"
        },
        {
          "indexed": true,
          "internalType": "address",
          "name": "token",
          "type": "address"
        },
        {
          "indexed": false,
          "internalType": "uint256",
          "name": "amount",
          "type": "uint256"
        },
        {
          "indexed": false,
          "internalType": "uint256",
          "name": "expiry",
          "type": "uint256"
        },
        {
          "indexed": false,
          "internalType": "address",
          "name": "recipient",
          "type": "address"
        },
        {
          "indexed": false,
          "internalType": "bytes32",
          "name": "secretHash",
          "type": "bytes32"
        },
        {
          "indexed": false,
          "internalType": "string",
          "name": "code",
          "type": "string"
        }
      ],
      "name": "ClaimCreated",
      "type": "event"
    },
    {
      "anonymous": false,
      "inputs": [
        {
          "indexed": true,
          "internalType": "uint256",
          "name": "id",
          "type": "uint256"
        },
        {
          "indexed": true,
          "internalType": "address",
          "name": "claimer",
          "type": "address"
        },
        {
          "indexed": false,
          "internalType": "uint256",
          "name": "amount",
          "type": "uint256"
        }
      ],
      "name": "Claimed",
      "type": "event"
    },
    {
      "anonymous": false,
      "inputs": [
        {
          "indexed": true,
          "internalType": "address",
          "name": "previousOwner",
          "type": "address"
        },
        {
          "indexed": true,
          "internalType": "address",
          "name": "newOwner",
          "type": "address"
        }
      ],
      "name": "OwnershipTransferred",
      "type": "event"
    },
    {
      "anonymous": false,
      "inputs": [
        {
          "indexed": true,
          "internalType": "address",
          "name": "by",
          "type": "address"
        }
      ],
      "name": "Paused",
      "type": "event"
    },
    {
      "anonymous": false,
      "inputs": [
        {
          "indexed": true,
          "internalType": "uint256",
          "name": "id",
          "type": "uint256"
        },
        {
          "indexed": true,
          "internalType": "address",
          "name": "payer",
          "type": "address"
        },
        {
          "indexed": false,
          "internalType": "uint256",
          "name": "amount",
          "type": "uint256"
        }
      ],
      "name": "Reclaimed",
      "type": "event"
    },
    {
      "anonymous": false,
      "inputs": [
        {
          "indexed": true,
          "internalType": "address",
          "name": "by",
          "type": "address"
        }
      ],
      "name": "Unpaused",
      "type": "event"
    },
    {
      "stateMutability": "payable",
      "type": "fallback"
    },
    {
      "inputs": [],
      "name": "NATIVE_CELO",
      "outputs": [
        {
          "internalType": "address",
          "name": "",
          "type": "address"
        }
      ],
      "stateMutability": "view",
      "type": "function"
    },
    {
      "inputs": [
        {
          "internalType": "uint256",
          "name": "id",
          "type": "uint256"
        },
        {
          "internalType": "bytes",
          "name": "secret",
          "type": "bytes"
        }
      ],
      "name": "claim",
      "outputs": [],
      "stateMutability": "nonpayable",
      "type": "function"
    },
    {
      "inputs": [
        {
          "internalType": "uint256",
          "name": "",
          "type": "uint256"
        }
      ],
      "name": "claims",
      "outputs": [
        {
          "internalType": "address",
          "name": "payer",
          "type": "address"
        },
        {
          "internalType": "address",
          "name": "token",
          "type": "address"
        },
        {
          "internalType": "uint256",
          "name": "amount",
          "type": "uint256"
        },
        {
          "internalType": "uint256",
          "name": "expiry",
          "type": "uint256"
        },
        {
          "internalType": "bool",
          "name": "claimed",
          "type": "bool"
        },
        {
          "internalType": "enum Paylink.ClaimStatus",
          "name": "status",
          "type": "uint8"
        },
        {
          "internalType": "address",
          "name": "recipient",
          "type": "address"
        },
        {
          "internalType": "bytes32",
          "name": "secretHash",
          "type": "bytes32"
        }
      ],
      "stateMutability": "view",
      "type": "function"
    },
    {
      "inputs": [
        {
          "internalType": "string",
          "name": "",
          "type": "string"
        }
      ],
      "name": "codeToClaimId",
      "outputs": [
        {
          "internalType": "uint256",
          "name": "",
          "type": "uint256"
        }
      ],
      "stateMutability": "view",
      "type": "function"
    },
    {
      "inputs": [
        {
          "internalType": "address",
          "name": "token",
          "type": "address"
        },
        {
          "internalType": "uint256",
          "name": "amount",
          "type": "uint256"
        },
        {
          "internalType": "uint256",
          "name": "expiry",
          "type": "uint256"
        },
        {
          "internalType": "address",
          "name": "recipient",
          "type": "address"
        },
        {
          "internalType": "bytes32",
          "name": "secretHash",
          "type": "bytes32"
        },
        {
          "internalType": "string",
          "name": "code",
          "type": "string"
        }
      ],
      "name": "createClaimERC20",
      "outputs": [
        {
          "internalType": "uint256",
          "name": "",
          "type": "uint256"
        }
      ],
      "stateMutability": "nonpayable",
      "type": "function"
    },
    {
      "inputs": [
        {
          "internalType": "uint256",
          "name": "expiry",
          "type": "uint256"
        },
        {
          "internalType": "address",
          "name": "recipient",
          "type": "address"
        },
        {
          "internalType": "bytes32",
          "name": "secretHash",
          "type": "bytes32"
        },
        {
          "internalType": "string",
          "name": "code",
          "type": "string"
        }
      ],
      "name": "createClaimNative",
      "outputs": [
        {
          "internalType": "uint256",
          "name": "",
          "type": "uint256"
        }
      ],
      "stateMutability": "payable",
      "type": "function"
    },
    {
      "inputs": [
        {
          "internalType": "address",
          "name": "token",
          "type": "address"
        },
        {
          "internalType": "uint256",
          "name": "amount",
          "type": "uint256"
        },
        {
          "internalType": "address",
          "name": "to",
          "type": "address"
        }
      ],
      "name": "emergencyWithdrawERC20",
      "outputs": [],
      "stateMutability": "nonpayable",
      "type": "function"
    },
    {
      "inputs": [
        {
          "internalType": "uint256",
          "name": "amount",
          "type": "uint256"
        },
        {
          "internalType": "address payable",
          "name": "to",
          "type": "address"
        }
      ],
      "name": "emergencyWithdrawNative",
      "outputs": [],
      "stateMutability": "nonpayable",
      "type": "function"
    },
    {
      "inputs": [
        {
          "internalType": "string",
          "name": "code",
          "type": "string"
        }
      ],
      "name": "getClaimByCode",
      "outputs": [
        {
          "internalType": "uint256",
          "name": "id",
          "type": "uint256"
        },
        {
          "internalType": "address",
          "name": "payer",
          "type": "address"
        },
        {
          "internalType": "address",
          "name": "token",
          "type": "address"
        },
        {
          "internalType": "uint256",
          "name": "amount",
          "type": "uint256"
        },
        {
          "internalType": "uint256",
          "name": "expiry",
          "type": "uint256"
        },
        {
          "internalType": "bool",
          "name": "claimed",
          "type": "bool"
        },
        {
          "internalType": "enum Paylink.ClaimStatus",
          "name": "status",
          "type": "uint8"
        },
        {
          "internalType": "address",
          "name": "recipientMasked",
          "type": "address"
        },
        {
          "internalType": "bool",
          "name": "requiresSecret",
          "type": "bool"
        },
        {
          "internalType": "bool",
          "name": "isNative",
          "type": "bool"
        }
      ],
      "stateMutability": "view",
      "type": "function"
    },
    {
      "inputs": [
        {
          "internalType": "string",
          "name": "code",
          "type": "string"
        }
      ],
      "name": "getClaimIdByCode",
      "outputs": [
        {
          "internalType": "uint256",
          "name": "",
          "type": "uint256"
        }
      ],
      "stateMutability": "view",
      "type": "function"
    },
    {
      "inputs": [
        {
          "internalType": "uint256",
          "name": "id",
          "type": "uint256"
        }
      ],
      "name": "getClaimPublic",
      "outputs": [
        {
          "internalType": "address",
          "name": "payer",
          "type": "address"
        },
        {
          "internalType": "address",
          "name": "token",
          "type": "address"
        },
        {
          "internalType": "uint256",
          "name": "amount",
          "type": "uint256"
        },
        {
          "internalType": "uint256",
          "name": "expiry",
          "type": "uint256"
        },
        {
          "internalType": "bool",
          "name": "claimed",
          "type": "bool"
        },
        {
          "internalType": "enum Paylink.ClaimStatus",
          "name": "status",
          "type": "uint8"
        },
        {
          "internalType": "address",
          "name": "recipientMasked",
          "type": "address"
        },
        {
          "internalType": "bool",
          "name": "requiresSecret",
          "type": "bool"
        },
        {
          "internalType": "bool",
          "name": "isNative",
          "type": "bool"
        }
      ],
      "stateMutability": "view",
      "type": "function"
    },
    {
      "inputs": [],
      "name": "getNativeBalance",
      "outputs": [
        {
          "internalType": "uint256",
          "name": "",
          "type": "uint256"
        }
      ],
      "stateMutability": "view",
      "type": "function"
    },
    {
      "inputs": [
        {
          "internalType": "address",
          "name": "user",
          "type": "address"
        }
      ],
      "name": "getUserClaimCount",
      "outputs": [
        {
          "internalType": "uint256",
          "name": "",
          "type": "uint256"
        }
      ],
      "stateMutability": "view",
      "type": "function"
    },
    {
      "inputs": [
        {
          "internalType": "address",
          "name": "user",
          "type": "address"
        }
      ],
      "name": "getUserClaims",
      "outputs": [
        {
          "internalType": "uint256[]",
          "name": "",
          "type": "uint256[]"
        }
      ],
      "stateMutability": "view",
      "type": "function"
    },
    {
      "inputs": [
        {
          "internalType": "uint256",
          "name": "id",
          "type": "uint256"
        }
      ],
      "name": "isNativeClaim",
      "outputs": [
        {
          "internalType": "bool",
          "name": "",
          "type": "bool"
        }
      ],
      "stateMutability": "view",
      "type": "function"
    },
    {
      "inputs": [],
      "name": "nextClaimId",
      "outputs": [
        {
          "internalType": "uint256",
          "name": "",
          "type": "uint256"
        }
      ],
      "stateMutability": "view",
      "type": "function"
    },
    {
      "inputs": [],
      "name": "owner",
      "outputs": [
        {
          "internalType": "address",
          "name": "",
          "type": "address"
        }
      ],
      "stateMutability": "view",
      "type": "function"
    },
    {
      "inputs": [],
      "name": "pause",
      "outputs": [],
      "stateMutability": "nonpayable",
      "type": "function"
    },
    {
      "inputs": [],
      "name": "paused",
      "outputs": [
        {
          "internalType": "bool",
          "name": "",
          "type": "bool"
        }
      ],
      "stateMutability": "view",
      "type": "function"
    },
    {
      "inputs": [
        {
          "internalType": "uint256",
          "name": "id",
          "type": "uint256"
        }
      ],
      "name": "reclaim",
      "outputs": [],
      "stateMutability": "nonpayable",
      "type": "function"
    },
    {
      "inputs": [],
      "name": "renounceOwnership",
      "outputs": [],
      "stateMutability": "nonpayable",
      "type": "function"
    },
    {
      "inputs": [
        {
          "internalType": "address",
          "name": "newOwner",
          "type": "address"
        }
      ],
      "name": "transferOwnership",
      "outputs": [],
      "stateMutability": "nonpayable",
      "type": "function"
    },
    {
      "inputs": [],
      "name": "unpause",
      "outputs": [],
      "stateMutability": "nonpayable",
      "type": "function"
    },
    {
      "stateMutability": "payable",
      "type": "receive"
    }
  ],
  "bytecode": "0x608060405260016005553480156013575f5ffd5b5060015f553380603c57604051631e4fbdf760e01b81525f600482015260240160405180910390fd5b6043816048565b506099565b600180546001600160a01b038381166001600160a01b0319831681179093556040519116919082907f8be0079c531659141344cd1fd0a4f28419497f9722a3daafe3b4186f6b6457e0905f90a35050565b611da1806100a65f395ff3fe608060405260043610610143575f3560e01c80638da5cb5b116100b5578063e3d84d5e1161006e578063e3d84d5e14610498578063f2fde38b146104b7578063f50ff83d146104d6578063f5a2eb96146104f5578063f6d61af814610508578063fd479869146105405761014a565b80638da5cb5b146102f4578063a0021cf114610325578063a58712921461033a578063a888c2cd1461034d578063bfb157d2146103d4578063c3925a4f146104095761014a565b80635c975abb116101075780635c975abb14610246578063715018a61461026f5780637697d494146102835780637bcb4a64146102a25780638456cb59146102ce57806388a9d554146102e25761014a565b80631f7c24481461018c5780632dabbeed146101ad57806338926b6d146101cc5780633f4ba83a146101eb57806340676a51146101ff5761014a565b3661014a57005b60405162461bcd60e51b8152602060048201526012602482015271119d5b98dd1a5bdb881b9bdd08199bdd5b9960721b60448201526064015b60405180910390fd5b348015610197575f5ffd5b506101ab6101a63660046117cf565b610577565b005b3480156101b8575f5ffd5b506101ab6101c73660046117fd565b610684565b3480156101d7575f5ffd5b506101ab6101e6366004611859565b6108be565b3480156101f6575f5ffd5b506101ab610baf565b34801561020a575f5ffd5b506102336102193660046118a1565b6001600160a01b03165f9081526004602052604090205490565b6040519081526020015b60405180910390f35b348015610251575f5ffd5b5060065461025f9060ff1681565b604051901515815260200161023d565b34801561027a575f5ffd5b506101ab610bed565b34801561028e575f5ffd5b5061023361029d3660046118bc565b610c00565b3480156102ad575f5ffd5b506102c16102bc3660046118a1565b610fc8565b60405161023d919061193c565b3480156102d9575f5ffd5b506101ab611031565b3480156102ed575f5ffd5b5047610233565b3480156102ff575f5ffd5b506001546001600160a01b03165b6040516001600160a01b03909116815260200161023d565b348015610330575f5ffd5b5061023360055481565b348015610345575f5ffd5b5061030d5f81565b348015610358575f5ffd5b506103c06103673660046117fd565b600260208190525f91825260409091208054600182015492820154600383015460048401546005909401546001600160a01b03938416958416949293919260ff8082169361010083049091169262010000909204169088565b60405161023d9897969594939291906119b2565b3480156103df575f5ffd5b506103f36103ee366004611a0d565b611072565b60405161023d9a99989796959493929190611a4c565b348015610414575f5ffd5b506104836104233660046117fd565b5f9081526002602081905260409091208054600182015492820154600383015460048401546005909401546001600160a01b0393841696958416959294919360ff8084169461010085049091169362010000900490911691151590871590565b60405161023d99989796959493929190611abc565b3480156104a3575f5ffd5b506101ab6104b2366004611b24565b611147565b3480156104c2575f5ffd5b506101ab6104d13660046118a1565b61120f565b3480156104e1575f5ffd5b506102336104f0366004611a0d565b611249565b610233610503366004611b63565b6112b3565b348015610513575f5ffd5b5061025f6105223660046117fd565b5f908152600260205260409020600101546001600160a01b03161590565b34801561054b575f5ffd5b5061023361055a366004611bdc565b805160208183018101805160038252928201919093012091525481565b61057f61160b565b6001600160a01b0381166105c95760405162461bcd60e51b81526020600482015260116024820152701a5b9d985b1a59081c9958da5c1a595b9d607a1b6044820152606401610183565b478211156106105760405162461bcd60e51b8152602060048201526014602482015273696e73756666696369656e742062616c616e636560601b6044820152606401610183565b5f816001600160a01b0316836040515f6040518083038185875af1925050503d805f8114610659576040519150601f19603f3d011682016040523d82523d5f602084013e61065e565b606091505b505090508061067f5760405162461bcd60e51b815260040161018390611c8f565b505050565b61068c611638565b5f818152600260205260409020600481015460ff16156106e05760405162461bcd60e51b815260206004820152600f60248201526e185b1c9958591e4818db185a5b5959608a1b6044820152606401610183565b5f8160020154116107235760405162461bcd60e51b815260206004820152600d60248201526c696e76616c696420636c61696d60981b6044820152606401610183565b806003015442116107645760405162461bcd60e51b815260206004820152600b60248201526a1b9bdd08195e1c1a5c995960aa1b6044820152606401610183565b80546001600160a01b031633146107a95760405162461bcd60e51b81526020600482015260096024820152683737ba103830bcb2b960b91b6044820152606401610183565b60048101805461ffff191661020117905560018101546001600160a01b031661084557805460028201546040515f926001600160a01b031691908381818185875af1925050503d805f8114610819576040519150601f19603f3d011682016040523d82523d5f602084013e61081e565b606091505b505090508061083f5760405162461bcd60e51b815260040161018390611c8f565b50610869565b805460028201546001830154610869926001600160a01b0391821692911690611660565b805460028201546040519081526001600160a01b039091169083907fe79f76d3ef42e7845b4f718917861642d857a02a4e690c28e79e5af7f5f8f2d39060200160405180910390a3506108bb60015f55565b50565b6108c6611638565b60065460ff16156108e95760405162461bcd60e51b815260040161018390611cbd565b5f838152600260205260409020600481015460ff161561093d5760405162461bcd60e51b815260206004820152600f60248201526e185b1c9958591e4818db185a5b5959608a1b6044820152606401610183565b5f8160020154116109805760405162461bcd60e51b815260206004820152600d60248201526c696e76616c696420636c61696d60981b6044820152606401610183565b80600301544211156109c45760405162461bcd60e51b815260206004820152600d60248201526c18db185a5b48195e1c1a5c9959609a1b6044820152606401610183565b60048101546201000090046001600160a01b031615610a3f5760048101546201000090046001600160a01b03163314610a3f5760405162461bcd60e51b815260206004820152601860248201527f6e6f7420617574686f72697a656420726563697069656e7400000000000000006044820152606401610183565b600581015415610aab5780600501548383604051610a5e929190611ce6565b604051809103902014610aa45760405162461bcd60e51b815260206004820152600e60248201526d1a5b9d985b1a59081cd958dc995d60921b6044820152606401610183565b5f60058201555b60048101805461ffff191661010117905560018101546001600160a01b0316610b3c5760028101546040515f9133918381818185875af1925050503d805f8114610b10576040519150601f19603f3d011682016040523d82523d5f602084013e610b15565b606091505b5050905080610b365760405162461bcd60e51b815260040161018390611c8f565b50610b5d565b60028101546001820154610b5d916001600160a01b03909116903390611660565b336001600160a01b0316847f4ec90e965519d92681267467f775ada5bd214aa92c0dc93d90a5e880ce9ed0268360020154604051610b9d91815260200190565b60405180910390a35061067f60015f55565b610bb761160b565b6006805460ff1916905560405133907f5db9ee0a495bf2e6ff9c91a7834c1ba4fdd244a5e8aa4e537bd38aeae4b073aa905f90a2565b610bf561160b565b610bfe5f6116bf565b565b6006545f9060ff1615610c255760405162461bcd60e51b815260040161018390611cbd565b828280610c6b5760405162461bcd60e51b8152602060048201526014602482015273636f64652063616e6e6f7420626520656d70747960601b6044820152606401610183565b6040811115610cac5760405162461bcd60e51b815260206004820152600d60248201526c636f646520746f6f206c6f6e6760981b6044820152606401610183565b60038282604051610cbe929190611ce6565b9081526020016040518091039020545f14610d115760405162461bcd60e51b8152602060048201526013602482015272636f646520616c72656164792065786973747360681b6044820152606401610183565b6001600160a01b038a16610d585760405162461bcd60e51b815260206004820152600e60248201526d1d1bdad95b881c995c5d5a5c995960921b6044820152606401610183565b5f8911610d925760405162461bcd60e51b81526020600482015260086024820152670616d6f756e743e360c41b6044820152606401610183565b428811610dd45760405162461bcd60e51b815260206004820152601060248201526f65787069727920696e2066757475726560801b6044820152606401610183565b610de96001600160a01b038b1633308c611710565b600580545f9182610df983611cf5565b9091555060408051610100810182523381526001600160a01b038e1660208201529081018c9052606081018b90525f608082018190529192509060a082019081526001600160a01b03808b1660208084019190915260409283018b90525f858152600280835290849020855181549085166001600160a01b03199182161782559286015160018201805491909516931692909217909255918301518282015560608301516003830155608083015160048301805491151560ff1983168117825560a086015193919261ff001990911661ffff199091161790610100908490811115610ee657610ee661197e565b021790555060c08201518160040160026101000a8154816001600160a01b0302191690836001600160a01b0316021790555060e082015181600501559050508060038787604051610f38929190611ce6565b908152604080516020928190038301812093909355335f818152600484529182208054600181018255908352929091209091018390556001600160a01b038d169183907f68a1cb077535a66e21e579bde136f45e31e79e531dd0c0d4e94cf517e24adfe790610fb2908f908f908f908f908f908f90611d19565b60405180910390a49a9950505050505050505050565b6001600160a01b0381165f9081526004602090815260409182902080548351818402810184019094528084526060939283018282801561102557602002820191905f5260205f20905b815481526020019060010190808311611011575b50505050509050919050565b61103961160b565b6006805460ff1916600117905560405133907f62e78cea01bee320cd4e420270b5ea74000d11b0c9f74754ebdbfc544b05a258905f90a2565b5f5f5f5f5f5f5f5f5f5f60038c8c60405161108e929190611ce6565b9081526020016040518091039020549950895f036110dd5760405162461bcd60e51b815260206004820152600c60248201526b696e76616c696420636f646560a01b6044820152606401610183565b5050505f8781526002602081905260409091208054600182015492820154600383015460048401546005909401549b9e6001600160a01b039384169e509483169c50909a90995060ff80841699506101008404169750620100009092041694501515925088159150565b61114f61160b565b6001600160a01b0381166111995760405162461bcd60e51b81526020600482015260116024820152701a5b9d985b1a59081c9958da5c1a595b9d607a1b6044820152606401610183565b6001600160a01b0383166111fb5760405162461bcd60e51b8152602060048201526024808201527f75736520656d657267656e637957697468647261774e617469766520666f722060448201526343454c4f60e01b6064820152608401610183565b61067f6001600160a01b0384168284611660565b61121761160b565b6001600160a01b03811661124057604051631e4fbdf760e01b81525f6004820152602401610183565b6108bb816116bf565b5f5f6003848460405161125d929190611ce6565b9081526020016040518091039020549050805f036112ac5760405162461bcd60e51b815260206004820152600c60248201526b696e76616c696420636f646560a01b6044820152606401610183565b9392505050565b6006545f9060ff16156112d85760405162461bcd60e51b815260040161018390611cbd565b82828061131e5760405162461bcd60e51b8152602060048201526014602482015273636f64652063616e6e6f7420626520656d70747960601b6044820152606401610183565b604081111561135f5760405162461bcd60e51b815260206004820152600d60248201526c636f646520746f6f206c6f6e6760981b6044820152606401610183565b60038282604051611371929190611ce6565b9081526020016040518091039020545f146113c45760405162461bcd60e51b8152602060048201526013602482015272636f646520616c72656164792065786973747360681b6044820152606401610183565b5f34116113fe5760405162461bcd60e51b81526020600482015260086024820152670616d6f756e743e360c41b6044820152606401610183565b4288116114405760405162461bcd60e51b815260206004820152601060248201526f65787069727920696e2066757475726560801b6044820152606401610183565b600580545f918261145083611cf5565b9091555060408051610100810182523381525f602082018190523492820192909252606081018c90526080810182905291925060a082019081526001600160a01b03808b1660208084019190915260409283018b90525f858152600280835290849020855181549085166001600160a01b03199182161782559286015160018201805491909516931692909217909255918301518282015560608301516003830155608083015160048301805491151560ff1983168117825560a086015193919261ff001990911661ffff1990911617906101009084908111156115365761153661197e565b021790555060c08201518160040160026101000a8154816001600160a01b0302191690836001600160a01b0316021790555060e082015181600501559050508060038787604051611588929190611ce6565b908152604080516020928190038301812093909355335f8181526004845291822080546001810182559083529282209092018490559183907f68a1cb077535a66e21e579bde136f45e31e79e531dd0c0d4e94cf517e24adfe7906115f79034908f908f908f908f908f90611d19565b60405180910390a498975050505050505050565b6001546001600160a01b03163314610bfe5760405163118cdaa760e01b8152336004820152602401610183565b60025f540361165a57604051633ee5aeb560e01b815260040160405180910390fd5b60025f55565b6040516001600160a01b0383811660248301526044820183905261067f91859182169063a9059cbb906064015b604051602081830303815290604052915060e01b6020820180516001600160e01b03838183161783525050505061174f565b600180546001600160a01b038381166001600160a01b0319831681179093556040519116919082907f8be0079c531659141344cd1fd0a4f28419497f9722a3daafe3b4186f6b6457e0905f90a35050565b6040516001600160a01b0384811660248301528381166044830152606482018390526117499186918216906323b872dd9060840161168d565b50505050565b5f5f60205f8451602086015f885af18061176e576040513d5f823e3d81fd5b50505f513d91508115611785578060011415611792565b6001600160a01b0384163b155b1561174957604051635274afe760e01b81526001600160a01b0385166004820152602401610183565b6001600160a01b03811681146108bb575f5ffd5b5f5f604083850312156117e0575f5ffd5b8235915060208301356117f2816117bb565b809150509250929050565b5f6020828403121561180d575f5ffd5b5035919050565b5f5f83601f840112611824575f5ffd5b50813567ffffffffffffffff81111561183b575f5ffd5b602083019150836020828501011115611852575f5ffd5b9250929050565b5f5f5f6040848603121561186b575f5ffd5b83359250602084013567ffffffffffffffff811115611888575f5ffd5b61189486828701611814565b9497909650939450505050565b5f602082840312156118b1575f5ffd5b81356112ac816117bb565b5f5f5f5f5f5f5f60c0888a0312156118d2575f5ffd5b87356118dd816117bb565b9650602088013595506040880135945060608801356118fb816117bb565b93506080880135925060a088013567ffffffffffffffff81111561191d575f5ffd5b6119298a828b01611814565b989b979a50959850939692959293505050565b602080825282518282018190525f918401906040840190835b81811015611973578351835260209384019390920191600101611955565b509095945050505050565b634e487b7160e01b5f52602160045260245ffd5b600381106119ae57634e487b7160e01b5f52602160045260245ffd5b9052565b6001600160a01b038981168252881660208201526040810187905260608101869052841515608082015261010081016119ee60a0830186611992565b6001600160a01b039390931660c082015260e001529695505050505050565b5f5f60208385031215611a1e575f5ffd5b823567ffffffffffffffff811115611a34575f5ffd5b611a4085828601611814565b90969095509350505050565b8a81526001600160a01b038a8116602083015289166040820152606081018890526080810187905285151560a08201526101408101611a8e60c0830187611992565b6001600160a01b039490941660e0820152911515610100830152151561012090910152979650505050505050565b6001600160a01b038a8116825289166020820152604081018890526060810187905285151560808201526101208101611af860a0830187611992565b6001600160a01b039490941660c082015291151560e08301521515610100909101529695505050505050565b5f5f5f60608486031215611b36575f5ffd5b8335611b41816117bb565b9250602084013591506040840135611b58816117bb565b809150509250925092565b5f5f5f5f5f60808688031215611b77575f5ffd5b853594506020860135611b89816117bb565b935060408601359250606086013567ffffffffffffffff811115611bab575f5ffd5b611bb788828901611814565b969995985093965092949392505050565b634e487b7160e01b5f52604160045260245ffd5b5f60208284031215611bec575f5ffd5b813567ffffffffffffffff811115611c02575f5ffd5b8201601f81018413611c12575f5ffd5b803567ffffffffffffffff811115611c2c57611c2c611bc8565b604051601f8201601f19908116603f0116810167ffffffffffffffff81118282101715611c5b57611c5b611bc8565b604052818152828201602001861015611c72575f5ffd5b816020840160208301375f91810160200191909152949350505050565b60208082526014908201527310d15313c81d1c985b9cd9995c8819985a5b195960621b604082015260600190565b6020808252600f908201526e18dbdb9d1c9858dd081c185d5cd959608a1b604082015260600190565b818382375f9101908152919050565b5f60018201611d1257634e487b7160e01b5f52601160045260245ffd5b5060010190565b86815285602082015260018060a01b038516604082015283606082015260a060808201528160a0820152818360c08301375f81830160c090810191909152601f909201601f191601019594505050505056fea2646970667358221220739fa1be167d66cff3aa7b6f1175645c2d559a3531ddc29e6ba0e37fff202a8e64736f6c634300081c0033",
  "linkReferences": {},
  "deployedLinkReferences": {},
  "immutableReferences": {},
  "inputSourceName": "project/contracts/Paylink.sol",
  "buildInfoId": "solc-0_8_28-f00180b4afe8203a4cad390a6794b1b0e9de56ec"
}